S010000070726F6A656374352E73726563E8
S11300000C942A000C9447000C9447000C9447006D
S11300100C9447000C9447000C9447000C94470040
S11300200C9447000C9447000C9447000C94470030
S11300300C9447000C9447000C9447000C94470020
S11300400C9447000C9447000C9447000C94470010
S11300500C94470011241FBECFE5D8E0DEBFCDBF0E
S113006010E0A0E6B0E0ECE4F2E002C005900D92EE
S1130070A636B107D9F720E0A6E6B0E001C01D928C
S1130080AA36B207E1F70E94B5000C9424010C943F
S11300900000959A000000009598089514BA979A64
S11300A09298AF9B03C00E944900FBCF8FEF84BBA3
S11300B00895CF93C82F0E944E00C5BB9798929A7B
S11300C00E94490015BACF910895CF93DF93EC01B4
S11300D08991882319F00E945900FACFDF91CF91BA
S11300E00895D09AD89887E293E20197F1F700C077
S11300F00000D89A9DE09A95F1F700000895D098F1
S1130100D89AC899FECFC89BFECFC899FECF089550
S113011028E080E0C89BFECF96E19A95F1F790E045
S1130120C89B04C0880F991F816001C0880FC899BB
S1130130FECF215079F70895109266004AE067E6F1
S113014070E00E94EF00E0916600E23068F45D9B8D
S1130150FECFF0E0E959FF4F80818CB980916600B1
S11301608F5F80936600EFCF089510BC8CE089B94F
S113017080B5866880BD539AD09AD89A0E9471003F
S11301800E947F000E948800C82F0E948800182FB8
S11301900E948800F82E0E948800D82F0E948800B0
S11301A0082F1C0F1F0DC12FCD0F8F2D90E00E9423
S11301B09C00C01718F40C1BC02F01C0C01BC63014
S11301C020F080E690E00E9465002FEB87E299E042
S11301D0215080409040E1F700C00000CDCFBB2704
S11301E04A3031F4992322F4BDE2909581959F4FD2
S11301F00C94FB00BB27FB015527AA27880F991FE6
S1130200AA1FA41710F0A41B83955051B9F7A05D41
S1130210AA3308F0A95DA193009779F7B111B193BE
S11302201192CB010C941401DC01FC01672F719134
S11302307723E1F7329704C07C916D9370836291C8
S10F0240AE17BF07C8F30895F894FFCF71
S109024C6572726F72007E
S9030000FC
