:100000000C942A000C9434000C9434000C943400AA
:100010000C9434000C9434000C9434000C94340090
:100020000C9434000C9434000C9434000C94340080
:100030000C9434000C9434000C9434000C94340070
:100040000C9434000C9434000C9434000C94340060
:100050000C94340011241FBECFE5D8E0DEBFCDBF25
:100060000E9436000C945D000C9400008FEF84BB5E
:1000700017BA81BB82E088BB81E085BB94E021E0B8
:1000800092BBB19905C085B3880F880F85BB0EC0A0
:1000900085B3813019F485B385BB08C085B3811160
:1000A00002C025BB03C085B3869585BBE3E2F4EFB0
:0E00B0003197F1F700C00000E3CFF894FFCFC6
:00000001FF
