:100000000C942A000C9434000C9434000C943400AA
:100010000C9434000C9434000C9434000C94340090
:100020000C9434000C9434000C9434000C94340080
:100030000C9434000C9434000C9434000C94340070
:100040000C9434000C9434000C9434000C94340060
:100050000C94340011241FBECFE5D8E0DEBFCDBF25
:100060000E9436000C9443000C9400008FEF8ABB72
:100070001BBA8BB380958BBB89EF90E00197F1F7AA
:0A00800000C00000F6CFF894FFCF97
:00000001FF
