:100000000C942A000C943C000C943C000C943C0092
:100010000C943C000C943C000C943C000C943C0070
:100020000C943C000C943C000C943C000C943C0060
:100030000C943C000C943C000C943C000C943C0050
:100040000C943C000C943C000C943C000C943C0040
:100050000C943C0011241FBECFE5D8E0DEBFCDBF1D
:1000600020E0A0E6B0E001C01D92A136B207E1F7A2
:100070000E9461000C9490000C9400009C9B05C0B1
:10008000809160008061809360009D9B05C080919D
:1000900060008062809360009E9B05C0809160003C
:1000A0008064809360009F9B05C0809160008068A1
:1000B0008093600008955D9BFECF809160008CB9B5
:1000C000089510BC8CE089B980B5866880BD8AB17E
:1000D00088618AB914BA989BFECF0E943E002FED2A
:1000E00082E292E0215080409040E1F700C00000A1
:1000F0008091600082958F7080936000989BFECF06
:100100000E943E000E945B002FED82E292E02150AF
:1001100080409040E1F700C0000010926000DBCF0B
:04012000F894FFCF81
:00000001FF
