:100000000C942A000C943F000C943F000C943F0089
:100010000C943F000C943F000C943F000C943F0064
:100020000C943F000C943F000C943F000C943F0054
:100030000C943F000C943F000C943F000C943F0044
:100040000C943F000C943F000C943F000C943F0034
:100050000C943F0011241FBECFE5D8E0DEBFCDBF1A
:1000600010E0A0E6B0E0E0E1F3E002C005900D9200
:10007000A238B107D9F70E94CB000C9486010C94EA
:100080000000959A000000009598089514BA979A78
:100090009298AF9B04C00E944100AF99FCCF8FEFB4
:1000A00084BB0895CF93C82F0E944600C5BB82B37E
:1000B0008B7782BB0E94410015BACF91089581B31E
:1000C000846A81BB85EA9EE00197F1F700C00000D9
:1000D00081E00E94520083EF91E00197F1F700C0A8
:1000E000000088E30E94520090E19A95F1F700C069
:1000F0008EE00E94520080E18A95F1F700C080E80E
:100100000E94520090E19A95F1F700C00895CF93B4
:10011000C82F0E944600C5BB9798929A0E94410042
:1001200015BACF910895CF93DF93EC01888188238E
:1001300031F021960E94870089918111FBCFDF91D8
:10014000CF910895D09AD89883E991E10197F1F77A
:1001500000C00000D89A96E09A95F1F700C0089583
:10016000D098D89AC899FECFC89BFECFC899FECF29
:10017000089598E080E0C89BFECF2BE02A95F1F728
:10018000C89B03C0880F816001C0880FC899FECF4B
:10019000915089F70895CF93DF9300D000D0CDB769
:1001A000DEB70E945F00D09AD89A0E94A2000E94F7
:1001B000B0000E94B900D82E0E94B900F82E0E940B
:1001C000B900E82E0E94B900082F0E94B9009D2DA9
:1001D0009F0D9E0D900F981718F4182F191B02C031
:1001E000192F181B81E00E94520083EF91E00197C4
:1001F000F1F700C00000163008F045C080E80E940A
:10020000520090E19A95F1F700C080E690E00E94DC
:1002100093008CE80E94520020E12A95F1F700C07B
:100220004AE0BE016F5F7F4F8D2D90E00E9451012B
:10023000CE0101960E9493008AE690E00E9493000E
:1002400080EC0E94520080E18A95F1F700C08DE6B3
:1002500090E00E9493008CEC0E94520090E19A95ED
:10026000F1F700C04AE0BE016F5F7F4F8E2D90E036
:100270000E945101CE0101960E9493008AE790E00E
:100280000E94930004C08CE790E00E9493002FED41
:1002900083E994E0215080409040E1F700C00000E5
:1002A00082CFBB274A3031F4992322F4BDE29095E6
:1002B00081959F4F0C945D01BB27FB015527AA2711
:1002C000880F991FAA1FA41710F0A41B83955051E3
:1002D000B9F7A05DAA3308F0A95DA193009779F75B
:1002E000B111B1931192CB010C947601DC01FC01A8
:1002F000672F71917723E1F7329704C07C916D935A
:1003000070836291AE17BF07C8F30895F894FFCFCA
:1003100068756D69646974793A0052480074656D56
:1003200070657261747572653A0043006572726F30
:02033000720059
:00000001FF
