S010000070726F6A656374332E73726563EA
S11300000C942A000C9434000C9434000C943400A6
S11300100C9434000C9434000C9434000C9434008C
S11300200C9434000C9434000C9434000C9434007C
S11300300C9434000C9434000C9434000C9434006C
S11300400C9434000C9434000C9434000C9434005C
S11300500C94340011241FBECFE5D8E0DEBFCDBF21
S11300600E947C000C9486000C940000959A000079
S113007000009598089514BA979A9298AF9B04C07B
S11300800E943600AF99FCCF8FEF84BB0895CF93C5
S1130090C82F0E943B00C5BB82B38B7782BB0E94F2
S11300A0360015BACF91089581B3846A81BB85EA7D
S11300B09EE00197F1F700C0000081E00E94470034
S11300C083EF91E00197F1F700C0000088E30E94FC
S11300D0470090E19A95F1F700C08EE00E94470036
S11300E080E18A95F1F700C080E80E94470090E122
S11300F09A95F1F700C008950E9454007894329ABA
S11301003E9A389A339A379A369AFFCFF894FFCFAB
S9030000FC
