:100000000C942A000C9447000C9447000C94470071
:100010000C9447000C9447000C9447000C94470044
:100020000C9447000C9447000C9447000C94470034
:100030000C9447000C9447000C9447000C94470024
:100040000C9447000C9447000C9447000C94470014
:100050000C94470011241FBECFE5D8E0DEBFCDBF12
:1000600010E0A0E6B0E0ECEFF5E002C005900D92E4
:10007000AA36B107D9F720E0AAE6B0E001C01D9288
:10008000AA36B207E1F70E94F9010C94FC020C9425
:100090000000A09AA89887E293E20197F1F700C0C8
:1000A0000000A89A9DE09A95F1F700000895A098A5
:1000B000A89A9899FECF989BFECF9899FECF089565
:1000C00098E080E0989BFECF26E12A95F1F7989B77
:1000D00003C0880F816001C0880F9899FECF9150AE
:1000E00089F708958FB9779BFECF8FB108950F934D
:1000F0001F93CF93DF93EC01062F87E893E10197DD
:10010000F1F700C00000C49887E893E10197F1F788
:1001100000C0000081EE0E94720087E893E1019721
:10012000F1F700C00000C49A87E893E10197F1F766
:1001300000C00000C49887E893E10197F1F700C080
:10014000000080EA0E94720087E893E10197F1F7CE
:1001500000C00000002391F0015010E00F5F1F4F1E
:100160000C0F1D1F89910E94720087E893E101978F
:10017000F1F700C00000C017D107A1F7C49A87E8C3
:1001800093E10197F1F700C00000C39A8FE097E276
:100190000197F1F700C00000C398DF91CF911F9144
:1001A0000F91089587E893E10197F1F700C00000EF
:1001B000C49887E893E10197F1F700C0000087E257
:1001C0000E94720087E893E10197F1F700C00000F8
:1001D00080E70E94720087E893E10197F1F700C081
:1001E0000000C49A87E893E10197F1F700C000008E
:1001F0000895CF93C62FE7E8F3E13197F1F700C0F8
:100200000000C498E7E8F3E13197F1F700C000007F
:10021000805E0E94720087E893E10197F1F700C0C9
:1002200000008C2F0E947200E7E8F3E13197F1F7AC
:1002300000C00000C49A87E893E10197F1F700C07D
:100240000000CF910895CF938FE493EC0197F1F7DD
:1002500000C0000061E081E00E94F90087E893E1BE
:100260000197F1F700C0000061E082E00E94F90010
:1002700087E893E10197F1F700C0000063E083E0B5
:100280000E94F90087E893E10197F1F700C00000B0
:100290006FEF84E00E94F90087E893E10197F1F79E
:1002A00000C0000064E286E00E94F90087E893E164
:1002B0000197F1F700C0000069E085E00E94F900B5
:1002C00087E893E10197F1F700C0000066E08DE157
:1002D0000E94F90087E893E10197F1F700C0000060
:1002E00061E08CE10E94F90087E893E10197F1F762
:1002F00000C00000C49887E893E10197F1F700C0BF
:10030000000080E30E94720087E893E10197F1F713
:1003100000C00000C5E08EEE0E94720087E893E105
:100320000197F1F700C00000C150A9F7C49A87E80F
:1003300093E10197F1F700C0000087E893E101978E
:10034000F1F700C00000C49887E893E10197F1F746
:1003500000C000008AE20E94720087E893E10197E2
:10036000F1F700C00000C5E08EEE0E94720087E841
:1003700093E10197F1F700C00000C150A9F7C49ABA
:1003800087E893E10197F1F700C0000065E081E1A3
:100390000E94F90087E893E10197F1F700C000009F
:1003A0006AE780E00E94F9008FE493EC0197F1F78F
:1003B00000C00000CF910895C49883EC99E00197A4
:1003C000F1F700C0000081EE0E947200C49A83EC35
:1003D00099E00197F1F700C00000C49883EC99E020
:1003E0000197F1F700C0000082EE0E947200C49AEB
:1003F0000895CF93DF9300D000D01F92CDB7DEB722
:100400008AB386608ABB10BC8CE089B980B58668E7
:1004100080BD8AB188618AB987B3886B87BBBE9873
:100420008DB180658DB96F986D986B986998C49AF5
:10043000C3980E9423010F2EF4E7AF2EF02D0F2E4C
:10044000F5E6BF2EF02D0F2EF8E6CF2EF02D0F2E55
:10045000F5E7DF2EF02D87E893E10197F1F700C073
:1004600000000E94D200E7E8F3E13197F1F700C005
:10047000000069E080E690E00E947700FFE52AEE48
:1004800080E0F15020408040E1F700C000000E9471
:10049000DC01E7E8F3E13197F1F700C00000A09A32
:1004A000A89A0E9449000E9457000E946000F82EFE
:1004B0000E946000082F0E946000E82E0E946000E9
:1004C000182F0E9460000F0D0E0D902F910F98179E
:1004D00018F4891B982F01C0981B963080F54AE0CC
:1004E000BE016F5F7F4F8E2D90E00E94C70287E8AC
:1004F00093E10197F1F700C0000000E010E0F8017F
:10050000A082B182898182838A8183834AE0BE018D
:100510006D5F7F4F8F2D90E00E94C70287E893E1C7
:100520000197F1F700C00000F801C482D5828B81E9
:1005300086838C8187838D8180878E818187FFE38D
:100540002FEE87E0F15020408040E1F700C000002E
:100550000E94D200E7E8F3E13197F1F700C0000014
:1005600069E080E090E00E947700FFE52AEE80E0FD
:10057000F15020408040E1F700C000000E94DC0103
:10058000E7E8F3E13197F1F700C0000064CFBB2743
:100590004A3031F4992322F4BDE2909581959F4F22
:1005A0000C94D302BB27FB015527AA27880F991F5C
:1005B000AA1FA41710F0A41B83955051B9F7A05D92
:1005C000AA3308F0A95DA193009779F7B111B1930F
:1005D0001192CB010C94EC02DC01FC01672F7191AC
:1005E0007723E1F7329704C07C916D937083629119
:0C05F000AE17BF07C8F30895F894FFCFC2
:0A05FC00434154303030303100002C
:00000001FF
