:100000000C942A000C9447000C9447000C94470071
:100010000C9447000C9447000C9447000C94470044
:100020000C9447000C9447000C9447000C94470034
:100030000C9447000C9447000C9447000C94470024
:100040000C9447000C9447000C9447000C94470014
:100050000C94470011241FBECFE5D8E0DEBFCDBF12
:1000600010E0A0E6B0E0E6E8F7E002C005900D92EF
:10007000AA36B107D9F720E0AAE6B0E001C01D9288
:10008000A239B207E1F70E9476020C94C1030C94E6
:100090000000A09AA89887E293E20197F1F700C0C8
:1000A0000000A89A9DE09A95F1F700000895A098A5
:1000B000A89A9899FECF989BFECF9899FECF089565
:1000C00098E080E0989BFECF26E12A95F1F7989B77
:1000D00003C0880F816001C0880F9899FECF9150AE
:1000E00089F708958FB9779BFECF8FB10895EF926E
:1000F000FF920F931F93CF93DF937C01162F87E816
:1001000093E10197F1F700C00000C49887E893E1FC
:100110000197F1F700C0000081EE0E94720087E8AD
:1001200093E10197F1F700C00000C49A87E893E1DA
:100130000197F1F700C00000C49887E893E10197A8
:10014000F1F700C0000080EA0E94720087E893E1A6
:100150000197F1F700C000001123A1F0E701115051
:10016000012F10E00F5F1F4F0E0D1F1D89910E9480
:10017000720087E893E10197F1F700C00000C01713
:10018000D107A1F7C49A87E893E10197F1F700C07E
:100190000000C39A87E99AE30197F1F700C00000D5
:1001A000C398DF91CF911F910F91FF90EF90089529
:1001B00087E893E10197F1F700C00000C49887E851
:1001C00093E10197F1F700C0000087E20E947200FE
:1001D00087E893E10197F1F700C0000080E70E94F3
:1001E000720087E893E10197F1F700C00000C49A1C
:1001F00087E893E10197F1F700C000000895CF93DD
:10020000C62FE7E8F3E13197F1F700C00000C4988A
:10021000E7E8F3E13197F1F700C00000805E0E944B
:10022000720087E893E10197F1F700C000008C2F7E
:100230000E947200E7E8F3E13197F1F700C0000097
:10024000C49A87E893E10197F1F700C00000CF91CD
:100250000895CF938FE493EC0197F1F700C000006D
:1002600061E081E00E94FF0087E893E10197F1F7E8
:1002700000C0000061E082E00E94FF0087E893E197
:100280000197F1F700C0000063E083E00E94FF00E7
:1002900087E893E10197F1F700C000006FEF84E079
:1002A0000E94FF0087E893E10197F1F700C000008A
:1002B00064E286E00E94FF0087E893E10197F1F78E
:1002C00000C0000069E085E00E94FF0087E893E13C
:1002D0000197F1F700C0000066E08DE10E94FF0089
:1002E00087E893E10197F1F700C0000061E08CE13D
:1002F0000E94FF0087E893E10197F1F700C000003A
:10030000C49887E893E10197F1F700C0000080E30B
:100310000E94720087E893E10197F1F700C00000A6
:10032000C5E08EEE0E94720087E893E10197F1F735
:1003300000C00000C150A9F7C49A87E893E1019773
:10034000F1F700C0000087E893E10197F1F700C0E2
:100350000000C49887E893E10197F1F700C000001E
:100360008AE20E94720087E893E10197F1F700C0EA
:100370000000C5E08EEE0E94720087E893E10197CD
:10038000F1F700C00000C150A9F7C49A87E893E1D3
:100390000197F1F700C0000065E081E10E94FF00D5
:1003A00087E893E10197F1F700C000006AE780E079
:1003B0000E94FF008FE493EC0197F1F700C000006A
:1003C000CF910895C49883EC99E00197F1F700C0AC
:1003D000000081EE0E947200C49A83EC99E00197BC
:1003E000F1F700C00000C49883EC99E00197F1F7A1
:1003F00000C0000082EE0E947200C49A08955F9BC4
:10040000FECF8CB108951F93CF93DF9387E680933F
:100410007100C0E0D2E002C0C82FD92F0E94FF01B6
:10042000843209F04FC00E94FF018734B1F50E9469
:10043000FF018035A9F50E94FF018734A1F50E94D4
:10044000FF01873499F50E94FF01813491F50E94E4
:10045000FF018C3289F50E94FF018C3221F00E944D
:10046000FF018C32E1F7C43080F51CE20E94FF01ED
:100470008C3251F4CF5FC23069F4ED2FF0E0EF58C9
:10048000FF4F1083DF5FF2CFED2FF0E0EF58FF4F0B
:100490008083DF5FC43050F318C08C2F9D2F0EC0B7
:1004A0008C2F9D2F0BC08C2F9D2F08C08C2F9D2F24
:1004B00005C08C2F9D2F02C08C2F9D2FC43008F4B7
:1004C000ABCF03C0C43008F4A9CFED2FF0E0EF5854
:1004D000FF4F8DE08083DF5FED2FF0E0EF58FF4F9F
:1004E0008AE08083DF91CF911F910895D198329A4D
:1004F00087B1806687B9379A10BC8CE089B980B51E
:10050000866880BD8AB188618AB987B3886B87BBEA
:10051000BE988DB180658DB96F986D986B9869980C
:10052000C49AC3980E942901D12C0F2EF3E7EF2E15
:10053000F02D0F2EF8E6FF2EF02D05E014E70E94B7
:10054000D80087E893E10197F1F700C000006AE066
:1005500080E690E00E94770087EA91E60197F1F744
:1005600000C000000E94E20187E893E10197F1F7E3
:1005700000C00000A09AA89A0E9449000E9457005B
:100580000E946000C82E0E946000D82F0E94600068
:10059000B82E0E946000C82F0E946000DC0DDB0DA9
:1005A0009D2F9C0F981718F4891B982F01C0981B3A
:1005B000943060F54AE06CE670E08B2D90E00E948C
:1005C0008C0387E893E10197F1F700C00000C0E0D9
:1005D000D0E0E882ECE6F0E08081898381818A8343
:1005E0004AE06AE670E08C2D90E00E948C0387E878
:1005F00093E10197F1F700C00000FB82EAE6F0E02A
:1006000080818C8381818D83D02F01C0DD2D9FE57A
:100610002DE388E0915020408040E1F700C00000C9
:10062000C1E0CD0F389A87E893E10197F1F700C058
:100630000000369A8FE097E20197F1F700C00000C2
:10064000369824B185B190E0880F991F880F991FC3
:1006500022952695269523704AE06EE670E0822B5F
:100660000E948C0387E893E10197F1F700C0000036
:10067000EC2FF0E01083EEE6F0E094E09D0FCF5F0A
:100680008191AC2FB0E08C93C913F9CF87E893E147
:100690000197F1F700C000000E94D80087E893E1BD
:1006A0000197F1F700C0000065E06D0F80E090E079
:1006B0000E9477008FE59AEE0197F1F700C00000E5
:1006C0000E94E20187E893E10197F1F700C0000082
:1006D0000E94030287E893E10197F1F700C0000050
:1006E0000E94D80087E893E10197F1F700C000006D
:1006F0006CE181E790E00E9477008FE59AEE019728
:10070000F1F700C000000E94E20187E893E1019741
:10071000F1F700C0000013CFBB274A3031F4992312
:1007200022F4BDE2909581959F4F0C949803BB27CE
:10073000FB015527AA27880F991FAA1FA41710F09D
:10074000A41B83955051B9F7A05DAA3308F0A95DA9
:10075000A193009779F7B111B1931192CB010C9449
:10076000B103DC01FC01672F71917723E1F7329728
:1007700004C07C916D9370836291AE17BF07C8F37C
:060780000895F894FFCF7C
:0A0786006943415430303030310037
:00000001FF
