:100000000C942A000C9447000C9447000C94470071
:100010000C9447000C9447000C9447000C94470044
:100020000C9447000C9447000C9447000C94470034
:100030000C9447000C9447000C9447000C94470024
:100040000C9447000C9447000C9447000C94470014
:100050000C94470011241FBECFE5D8E0DEBFCDBF12
:1000600010E0A0E6B0E0E0E6F7E002C005900D92F7
:10007000AA36B107D9F720E0AAE6B0E001C01D9288
:10008000A039B207E1F70E9462020C94AE030C940F
:100090000000A09AA89887E293E20197F1F700C0C8
:1000A0000000A89A9DE09A95F1F700000895A098A5
:1000B000A89A9899FECF989BFECF9899FECF089565
:1000C00098E080E0989BFECF26E12A95F1F7989B77
:1000D00003C0880F816001C0880F9899FECF9150AE
:1000E00089F708958FB9779BFECF8FB10895EF926E
:1000F000FF920F931F93CF93DF937C01162F87E816
:1001000093E10197F1F700C00000C49887E893E1FC
:100110000197F1F700C0000081EE0E94720087E8AD
:1001200093E10197F1F700C00000C49A87E893E1DA
:100130000197F1F700C00000C49887E893E10197A8
:10014000F1F700C0000080EA0E94720087E893E1A6
:100150000197F1F700C000001123A1F0E701115051
:10016000012F10E00F5F1F4F0E0D1F1D89910E9480
:10017000720087E893E10197F1F700C00000C01713
:10018000D107A1F7C49A87E893E10197F1F700C07E
:100190000000C39A87E99AE30197F1F700C00000D5
:1001A000C398DF91CF911F910F91FF90EF90089529
:1001B00087E893E10197F1F700C00000C49887E851
:1001C00093E10197F1F700C0000087E20E947200FE
:1001D00087E893E10197F1F700C0000080E70E94F3
:1001E000720087E893E10197F1F700C00000C49A1C
:1001F00087E893E10197F1F700C000000895CF93DD
:10020000C62FE7E8F3E13197F1F700C00000C4988A
:10021000E7E8F3E13197F1F700C00000805E0E944B
:10022000720087E893E10197F1F700C000008C2F7E
:100230000E947200E7E8F3E13197F1F700C0000097
:10024000C49A87E893E10197F1F700C00000CF91CD
:100250000895CF938FE493EC0197F1F700C000006D
:1002600061E081E00E94FF0087E893E10197F1F7E8
:1002700000C0000061E082E00E94FF0087E893E197
:100280000197F1F700C0000063E083E00E94FF00E7
:1002900087E893E10197F1F700C000006FEF84E079
:1002A0000E94FF0087E893E10197F1F700C000008A
:1002B00064E286E00E94FF0087E893E10197F1F78E
:1002C00000C0000069E085E00E94FF0087E893E13C
:1002D0000197F1F700C0000066E08DE10E94FF0089
:1002E00087E893E10197F1F700C0000061E08CE13D
:1002F0000E94FF0087E893E10197F1F700C000003A
:10030000C49887E893E10197F1F700C0000080E30B
:100310000E94720087E893E10197F1F700C00000A6
:10032000C5E08EEE0E94720087E893E10197F1F735
:1003300000C00000C150A9F7C49A87E893E1019773
:10034000F1F700C0000087E893E10197F1F700C0E2
:100350000000C49887E893E10197F1F700C000001E
:100360008AE20E94720087E893E10197F1F700C0EA
:100370000000C5E08EEE0E94720087E893E10197CD
:10038000F1F700C00000C150A9F7C49A87E893E1D3
:100390000197F1F700C0000065E081E10E94FF00D5
:1003A00087E893E10197F1F700C000006AE780E079
:1003B0000E94FF008FE493EC0197F1F700C000006A
:1003C000CF910895C49883EC99E00197F1F700C0AC
:1003D000000081EE0E947200C49A83EC99E00197BC
:1003E000F1F700C00000C49883EC99E00197F1F7A1
:1003F00000C0000082EE0E947200C49A08955F9BC4
:10040000FECF8CB108951F93CF93DF9387E680933F
:100410007100C0E0D1E001C0C82F0E94FF0184320A
:1004200009F049C00E94FF018734B1F50E94FF0125
:100430008035A1F50E94FF01873491F50E94FF01EC
:10044000873481F50E94FF01813471F50E94FF011C
:100450008C3261F50E94FF018C3221F00E94FF0175
:100460008C32E1F7C43050F51CE20E94FF018C325F
:1004700051F4CF5FC23069F4ED2FF0E0EF58FF4F39
:100480001083DF5FF2CFED2FF0E0EF58FF4F808356
:10049000DF5FC43050F312C08C2F09C08C2F07C00F
:1004A0008C2F05C08C2F03C08C2F01C08C2FC43023
:1004B00008F4B2CF03C0C43008F4AFCFDF91CF91BE
:1004C0001F910895D198329A87B1816687B9379A7A
:1004D00010BC8CE089B980B5866880BD8AB188611E
:1004E0008AB987B3886B87BBBE988DB180658DB99B
:1004F0006F986D986B986998C49AC3980E94290167
:10050000D12C0F2EF3E7EF2EF02D0F2EF8E6FF2E55
:10051000F02D06E014E787E893E10197F1F700C0BA
:1005200000000E94D80087E893E10197F1F700C02E
:1005300000006AE080E690E00E9477008FE493EC90
:100540000197F1F700C000000E94E20187E893E103
:100550000197F1F700C00000A09AA89A0E944900F4
:100560000E9457000E946000C82E0E946000D82F91
:100570000E946000B82E0E946000C82F0E94600098
:10058000DC0DDB0D9D2F9C0F981718F4891B982FFD
:1005900001C0981B943070F54AE06CE670E08B2D3A
:1005A00090E00E94790387E893E10197F1F700C09A
:1005B0000000C0E0D0E0E882ECE6F0E080818983D2
:1005C00081818A834AE06AE670E08C2D90E00E9487
:1005D000790387E893E10197F1F700C00000FB82FF
:1005E000EAE6F0E080818C8381818D8382818E8335
:1005F000D02F01C0DD2D9FEB27E289E091502040F4
:100600008040E1F700C00000C1E0CD0F369A8FE0D6
:1006100097E20197F1F700C00000369824B185B148
:1006200090E0880F991F880F991F2295269526958F
:1006300023704AE06EE670E0822B0E94790387E81F
:1006400093E10197F1F700C00000EC2FF0E0108378
:10065000EEE6F0E094E09D0FCF5F8191AC2FB0E02B
:100660008C93C913F9CF87E893E10197F1F700C0A4
:1006700000000E94D80087E893E10197F1F700C0DD
:10068000000065E06D0F80E090E00E9477008FE44D
:1006900093EC0197F1F700C000000E94E20187E8A7
:1006A00093E10197F1F700C000000E94030287E880
:1006B00093E10197F1F700C000000E94D80087E89D
:1006C00093E10197F1F700C000006AE181E790E053
:1006D0000E9477008FE493EC0197F1F700C00000CF
:1006E0000E94E20187E893E10197F1F700C0000062
:1006F00012CFBB274A3031F4992322F4BDE2909502
:1007000081959F4F0C948503BB27FB015527AA2792
:10071000880F991FAA1FA41710F0A41B839550518E
:10072000B9F7A05DAA3308F0A95DA193009779F706
:10073000B111B1931192CB010C949E03DC01FC0129
:10074000672F71917723E1F7329704C07C916D9305
:1007500070836291AE17BF07C8F30895F894FFCF76
:0A076000694341543030303031005D
:00000001FF
