S00D00004E52465F542E737265637E
S11300000C942A000C9447000C9447000C9447006D
S11300100C9447000C9447000C9447000C94470040
S11300200C9447000C9447000C9447000C94470030
S11300300C9447000C9447000C9447000C94470020
S11300400C9447000C9447000C9447000C94470010
S11300500C94470011241FBECFE5D8E0DEBFCDBF0E
S113006010E0A0E6B0E0ECEBF6E002C005900D92E3
S1130070AA36B107D9F720E0AAE6B0E001C01D9284
S1130080A338B207E1F70E94FF010C945C030C94BF
S11300900000A09AA89887E293E20197F1F700C0C4
S11300A00000A89A9DE09A95F1F700000895A098A1
S11300B0A89A9899FECF989BFECF9899FECF089561
S11300C098E080E0989BFECF26E12A95F1F7989B73
S11300D003C0880F816001C0880F9899FECF9150AA
S11300E089F708958FB9779BFECF8FB10895EF926A
S11300F0FF920F931F93CF93DF937C01162F87E812
S113010093E10197F1F700C00000C49887E893E1F8
S11301100197F1F700C0000081EE0E94720087E8A9
S113012093E10197F1F700C00000C49A87E893E1D6
S11301300197F1F700C00000C49887E893E10197A4
S1130140F1F700C0000080EA0E94720087E893E1A2
S11301500197F1F700C000001123A1F0E70111504D
S1130160012F10E00F5F1F4F0E0D1F1D89910E947C
S1130170720087E893E10197F1F700C00000C0170F
S1130180D107A1F7C49A87E893E10197F1F700C07A
S11301900000C39A83ED90E30197F1F700C00000DB
S11301A0C398DF91CF911F910F91FF90EF90089525
S11301B087E893E10197F1F700C00000C49887E84D
S11301C093E10197F1F700C0000087E20E947200FA
S11301D087E893E10197F1F700C0000080E70E94EF
S11301E0720087E893E10197F1F700C00000C49A18
S11301F087E893E10197F1F700C000000895CF93D9
S1130200C62FE7E8F3E13197F1F700C00000C49886
S1130210E7E8F3E13197F1F700C00000805E0E9447
S1130220720087E893E10197F1F700C000008C2F7A
S11302300E947200E7E8F3E13197F1F700C0000093
S1130240C49A87E893E10197F1F700C00000CF91C9
S11302500895CF938FE493EC0197F1F700C0000069
S113026061E081E00E94FF0087E893E10197F1F7E4
S113027000C0000061E082E00E94FF0087E893E193
S11302800197F1F700C0000063E083E00E94FF00E3
S113029087E893E10197F1F700C000006FEF84E075
S11302A00E94FF0087E893E10197F1F700C0000086
S11302B064E286E00E94FF0087E893E10197F1F78A
S11302C000C0000069E085E00E94FF0087E893E138
S11302D00197F1F700C0000066E08DE10E94FF0085
S11302E087E893E10197F1F700C0000061E08CE139
S11302F00E94FF0087E893E10197F1F700C0000036
S1130300C49887E893E10197F1F700C0000080E307
S11303100E94720087E893E10197F1F700C00000A2
S1130320C5E08EEE0E94720087E893E10197F1F731
S113033000C00000C150A9F7C49A87E893E101976F
S1130340F1F700C0000087E893E10197F1F700C0DE
S11303500000C49887E893E10197F1F700C000001A
S11303608AE20E94720087E893E10197F1F700C0E6
S11303700000C5E08EEE0E94720087E893E10197C9
S1130380F1F700C00000C150A9F7C49A87E893E1CF
S11303900197F1F700C0000065E081E10E94FF00D1
S11303A087E893E10197F1F700C000006AE780E075
S11303B00E94FF008FE493EC0197F1F700C0000066
S11303C0CF910895C49883EC99E00197F1F700C0A8
S11303D0000081EE0E947200C49A83EC99E00197B8
S11303E0F1F700C00000C49883EC99E00197F1F79D
S11303F000C0000082EE0E947200C49A0895D19851
S1130400329A87B1816687B9379A10BC8CE089B972
S113041080B5866880BD8AB188618AB987B3886BE4
S113042087BBBE988DB180658DB96F986D986B98B8
S11304306998C49AC3980E94290113E7D8E6C4E7CF
S113044087E893E10197F1F700C000000E94D8000B
S113045087E893E10197F1F700C000006AE080E6C5
S113046090E00E9477008FE493EC0197F1F700C0CD
S113047000000E94E20187E893E10197F1F700C0D0
S11304800000A09AA89A0E9449000E9457000E9466
S1130490600080936E000E94600080936D000E9453
S11304A06000809370000E94600080936F000E943F
S11304B0600080936C003091700020916D009091E9
S11304C06E00920F20916F00920F930F981720F4F3
S11304D0891B80936B0003C0981B90936B008091E1
S11304E06B00863008F045C04AE06EE770E0832F69
S11304F090E00E94270387E893E10197F1F700C099
S1130500000080916A00E82FF0E01083E1E0E80F3A
S1130510F0E0AEE7B0E09C9190838E5FE82FF0E0CE
S113052011969C91908380936A0080916E004AE0BA
S113053060E870E090E00E94270387E893E1019768
S1130540F1F700C0000020916A00E1E0E20FF0E062
S1130550D08382E0820FE0E8F0E036E0320F919140
S1130560A82FB0E09C938F5F8313F9CF2B5F209368
S11305706A009FE72BE888E0915020408040E1F733
S113058000C0000080916A008F5F80936A00369AF1
S11305908FE493EC0197F1F700C00000369824B182
S11305A02093780085B190E0880F991F880F991FD8
S11305B02295269526952370822B90937200809322
S11305C0710096958795809373004AE064E770E024
S11305D090E00E9427038FE097E20197F1F700C0B3
S11305E0000090916A00E92FF0E0C08381E0890F58
S11305F0E4E7F0E09B5F2191A82FB0E02C938F5F9C
S11306009813F9CF90936A0087E893E10197F1F783
S113061000C000000E94D80087E893E10197F1F739
S113062000C0000060916A0080E090E00E947700C2
S11306308FE493EC0197F1F700C000000E94E201FF
S113064087E893E10197F1F700C00000F9CEBB27DA
S11306504A3031F4992322F4BDE2909581959F4F5D
S11306600C943303BB27FB015527AA27880F991F36
S1130670AA1FA41710F0A41B83955051B9F7A05DCD
S1130680AA3308F0A95DA193009779F7B111B1934A
S11306901192CB010C944C03DC01FC01672F719186
S11306A07723E1F7329704C07C916D937083629154
S10F06B0AE17BF07C8F30895F894FFCFFD
S10D06BC69434154303030303100FE
S9030000FC
