S00D00004E52465F542E737265637E
S11300000C942A000C9447000C9447000C9447006D
S11300100C9447000C9447000C9447000C94470040
S11300200C9447000C9447000C9447000C94470030
S11300300C9447000C9447000C9447000C94470020
S11300400C9447000C9447000C9447000C94470010
S11300500C94470011241FBECFE5D8E0DEBFCDBF0E
S113006010E0A0E6B0E0E2E5F8E002C005900D92F1
S1130070A836B107D9F720E0A8E6B0E001C01D9288
S1130080AC39B207E1F70E9476020C9427040C9471
S11300900000A09AA89887E293E20197F1F700C0C4
S11300A00000A89A9DE09A95F1F700000895A098A1
S11300B0A89A9899FECF989BFECF9899FECF089561
S11300C098E080E0989BFECF26E12A95F1F7989B73
S11300D003C0880F816001C0880F9899FECF9150AA
S11300E089F708958FB9779BFECF8FB10895EF926A
S11300F0FF920F931F93CF93DF937C01162F87E812
S113010093E10197F1F700C00000C49887E893E1F8
S11301100197F1F700C0000081EE0E94720087E8A9
S113012093E10197F1F700C00000C49A87E893E1D6
S11301300197F1F700C00000C49887E893E10197A4
S1130140F1F700C0000080EA0E94720087E893E1A2
S11301500197F1F700C000001123A1F0E70111504D
S1130160012F10E00F5F1F4F0E0D1F1D89910E947C
S1130170720087E893E10197F1F700C00000C0170F
S1130180D107A1F7C49A87E893E10197F1F700C07A
S11301900000C39A87E99AE30197F1F700C00000D1
S11301A0C398DF91CF911F910F91FF90EF90089525
S11301B087E893E10197F1F700C00000C49887E84D
S11301C093E10197F1F700C0000087E20E947200FA
S11301D087E893E10197F1F700C0000080E70E94EF
S11301E0720087E893E10197F1F700C00000C49A18
S11301F087E893E10197F1F700C000000895CF93D9
S1130200C62FE7E8F3E13197F1F700C00000C49886
S1130210E7E8F3E13197F1F700C00000805E0E9447
S1130220720087E893E10197F1F700C000008C2F7A
S11302300E947200E7E8F3E13197F1F700C0000093
S1130240C49A87E893E10197F1F700C00000CF91C9
S11302500895CF938FE493EC0197F1F700C0000069
S113026061E081E00E94FF0087E893E10197F1F7E4
S113027000C0000061E082E00E94FF0087E893E193
S11302800197F1F700C0000063E083E00E94FF00E3
S113029087E893E10197F1F700C000006FEF84E075
S11302A00E94FF0087E893E10197F1F700C0000086
S11302B067E286E00E94FF0087E893E10197F1F787
S11302C000C0000069E085E00E94FF0087E893E138
S11302D00197F1F700C0000066E08DE10E94FF0085
S11302E087E893E10197F1F700C0000061E08CE139
S11302F00E94FF0087E893E10197F1F700C0000036
S1130300C49887E893E10197F1F700C0000080E307
S11303100E94720087E893E10197F1F700C00000A2
S1130320C5E08EEE0E94720087E893E10197F1F731
S113033000C00000C150A9F7C49A87E893E101976F
S1130340F1F700C0000087E893E10197F1F700C0DE
S11303500000C49887E893E10197F1F700C000001A
S11303608AE20E94720087E893E10197F1F700C0E6
S11303700000C5E08EEE0E94720087E893E10197C9
S1130380F1F700C00000C150A9F7C49A87E893E1CF
S11303900197F1F700C0000065E081E10E94FF00D1
S11303A087E893E10197F1F700C000006AE780E075
S11303B00E94FF008FE493EC0197F1F700C0000066
S11303C0CF910895C49883EC99E00197F1F700C0A8
S11303D0000081EE0E947200C49A83EC99E00197B8
S11303E0F1F700C00000C49883EC99E00197F1F79D
S11303F000C0000082EE0E947200C49A08955F9BC0
S1130400FECF8CB108951F93CF93DF9387E680933B
S11304106F00C0E0D1E002C0C82FD92F0E94FF01B5
S1130420843209F04FC00E94FF018734B1F50E9465
S1130430FF018035A9F50E94FF018734A1F50E94D0
S1130440FF01873499F50E94FF01813491F50E94E0
S1130450FF018C3289F50E94FF018C3221F00E9449
S1130460FF018C32E1F7C43080F51CE20E94FF01E9
S11304708C3251F4CF5FC23069F4ED2FF0E0E159D2
S1130480FF4F1083DF5FF2CFED2FF0E0E159FF4F14
S11304908083DF5FC43050F318C08C2F9D2F0EC0B3
S11304A08C2F9D2F0BC08C2F9D2F08C08C2F9D2F20
S11304B005C08C2F9D2F02C08C2F9D2FC43008F4B3
S11304C0ABCF03C0C43008F4A9CFED2FF0E0E1595D
S11304D0FF4F8DE08083DF5FED2FF0E0E159FF4FA8
S11304E08AE08083DF91CF911F910895CF93DF93AA
S11304F0CDB7DEB7A8970FB6F894DEBF0FBECDBF59
S113050088E0E0E6F0E0DE01119601900D928A9514
S1130510E1F7D198329A87B1806687B9379A10BCCF
S11305208CE089B980B5866880BD8AB188618AB952
S113053087B3886B87BBBE988DB180658DB96F9882
S11305406D986B986998C49AC3980E9429018E018A
S1130550075F1F4FD02EE12E0F2EF3E7BF2EF02D95
S11305600F2EF8E6CF2EF02D0F2EF4E7FF2EF02DF0
S113057010926800A09AA89A0E9449000E9457000D
S11305800E94600080936C000E94600080936B0066
S11305900E94600080936E000E94600080936D0052
S11305A00E94600080936A0050916E0020916B005D
S11305B090916C00920F20916D00920F950F9817F7
S11305C020F4891B8093690003C0981B90936900F1
S11305D080916900843008F064C090916800FE0145
S11305E0319638E0390F2191D801A90FB11D2C9310
S11305F09F5F9313F8CF309368004AE067E970E097
S1130600852F90E00E94F20387E893E10197F1F7C8
S113061000C0000080916800F801E80FF11DB0826D
S113062091E0980FD801A90FB11DE7E9F0E090819E
S11306309C9392E0980FD801A90FB11D91819C93CE
S11306408D5F8093680080916C004AE069E970E0F6
S113065090E00E94F20387E893E10197F1F700C06C
S1130660000080916800F801E80FF11DC08291E05C
S1130670980FD801A90FB11DE9E9F0E090819C938E
S113068092E0980FD801A90FB11D91819C9393E03A
S1130690980FD801A90FB11D92819C938C5F809310
S11306A068009FE52DE388E0915020408040E1F709
S11306B000C00000389A399887E893E10197F1F770
S11306C000C00000369A8FE097E20197F1F700C06E
S11306D00000369824B12093910085B190E0880FF2
S11306E0991F880F991F2295269526952370822B92
S11306F090938C0080938B009C01369527952093D2
S11307008D004AE06EE870E00E94F20387E893E10E
S11307100197F1F700C0000080916800F801E80F2C
S1130720F11DF08291E0980FD801A90FB11DEEE8F8
S1130730F0E090819C9392E0980FD801A90FB11D2D
S113074091819C9393E0980FD801A90FB11D9281D8
S11307509C938C5F8093680087E893E10197F1F79D
S113076000C000000E94D80087E893E10197F1F7E8
S113077000C00000609168008D2D9E2D0E947700BE
S113078087EA91E60197F1F700C000000E94E201B8
S113079087E893E10197F1F700C000000E9403028B
S11307A087E893E10197F1F700C000000E94D800A8
S11307B087E893E10197F1F700C000006CE18FE650
S11307C090E00E94770087EA91E60197F1F700C074
S11307D000000E94E20187E893E10197F1F700C06D
S11307E00000C6CEBB274A3031F4992322F4BDE27F
S11307F0909581959F4F0C94FE03BB27FB015527D1
S1130800AA27880F991FAA1FA41710F0A41B839569
S11308105051B9F7A05DAA3308F0A95DA1930097E0
S113082079F7B111B1931192CB010C941704DC0147
S1130830FC01672F71917723E1F7329704C07C9113
S11308406D9370836291AE17BF07C8F30895F8944F
S1050850FFCFD4
S10B08526943415430303100C8
S9030000FC
