:100000000C942A000C943C000C943C000C943C0092
:100010000C943C000C943C000C943C000C943C0070
:100020000C943C000C943C000C943C000C943C0060
:100030000C943C000C943C000C943C000C943C0050
:100040000C943C000C943C000C943C000C943C0040
:100050000C943C0011241FBECFE5D8E0DEBFCDBF1D
:1000600020E0A0E6B0E001C01D92A836B207E1F79B
:100070000E9476010C9416020C9400008FB9779BB5
:10008000FECF8FB1089587E893E10197F1F700C0A3
:1000900000008FEF0E943E00E7E8F3E13197F1F7AF
:1000A00000C000000895E7E8F3E13197F1F700C0E0
:1000B0000000C498E7E8F3E13197F1F700C00000D1
:1000C0000E943E0087E893E10197F1F700C000002D
:1000D000809166000E943E00E7E8F3E13197F1F776
:1000E00000C00000C49AE7E8F3E13197F1F700C0DF
:1000F00000000895CF93C62FE7E8F3E13197F1F7B9
:1001000000C00000C498E3ECF9E03197F1F700C0BB
:100110000000805E0E943E008C2F0E943E0083EC17
:1001200099E00197F1F700C00000C49AE7E8F3E115
:100130003197F1F700C00000CF910895CF938FE47D
:1001400093EC0197F1F700C0000061E081E00E94AC
:100150007A0087E893E10197F1F700C0000061E0C1
:1001600082E00E947A0087E893E10197F1F700C0EE
:10017000000063E083E00E947A0087E893E1019742
:10018000F1F700C000006FEF84E00E947A0087E87A
:1001900093E10197F1F700C0000067E286E00E945A
:1001A0007A0087E893E10197F1F700C0000069E069
:1001B00085E00E947A0087E893E10197F1F700C09B
:1001C000000066E08DE10E947A0087E893E10197E4
:1001D000F1F700C0000061E08CE10E947A0087E83E
:1001E00093E10197F1F700C00000C49887E893E11C
:1001F0000197F1F700C0000080E30E943E0087E80D
:1002000093E10197F1F700C00000C5E08EEE0E9477
:100210003E0087E893E10197F1F700C00000C1506C
:10022000A9F7C49A87E893E10197F1F700C00000AD
:10023000C49887E893E10197F1F700C000008AE2D3
:100240000E943E0087E893E10197F1F700C00000AB
:10025000C5E08EEE0E943E0087E893E10197F1F73A
:1002600000C00000C150A9F7C49A65E081E10E9476
:100270007A0087E893E10197F1F700C000006BE78F
:1002800080E00E947A008FE493EC0197F1F700C0C0
:100290000000CF9108955D9BFECF8CB987E893E174
:1002A0000197F1F700C00000089587E893E10197F6
:1002B000F1F700C0000060E787E00E947A00C39A6F
:1002C000C49888EA0E943E0081E10E943E0087E8CF
:1002D00093E10197F1F700C00000C49AC39887E842
:1002E00093E10197F1F700C00000089510BC8CE085
:1002F00089B980B5866880BD8AB188618AB987B3BB
:10030000886B87BBBE988DB181658DB987E893E115
:100310000197F1F700C000006F986D986B9869988D
:10032000C49A87E893E10197F1F700C00000C398F1
:100330000E949E008FE493EC0197F1F700C000004B
:1003400067E087E00E947A0087E893E10197F1F780
:1003500000C00000C39A83EC99E00197F1F700C058
:10036000000087E00E94530086FFFBCF67E087E034
:100370000E947A00C49883EC99E00197F1F700C0DD
:10038000000080E60E943E0083EC99E00197F1F7BF
:1003900000C000000E944300D82F83EC99E0019731
:1003A000F1F700C00000C49A83EC99E00197F1F7DF
:1003B00000C00000C49883EC99E00197F1F700C0F9
:1003C000000081E60E943E0083EC99E00197F1F77E
:1003D00000C00000DD2351F0C0E00E944300809384
:1003E00060000E944B01CF5FDC13F7CFC49A83EC0F
:1003F00099E00197F1F700C00000C49883EC99E000
:100400000197F1F700C0000082EE0E943E00C49AFE
:1004100083EC99E00197F1F700C00000C49881EEE9
:100420000E943E00C49A0E94550184CFF894FFCFE9
:00000001FF
