S01300007472616E736D69747465722E7372656354
S11300000C942A000C9447000C9447000C9447006D
S11300100C9447000C9447000C9447000C94470040
S11300200C9447000C9447000C9447000C94470030
S11300300C9447000C9447000C9447000C94470020
S11300400C9447000C9447000C9447000C94470010
S11300500C94470011241FBECFE5D8E0DEBFCDBF0E
S113006010E0A0E6B0E0ECE2F1E002C005900D92F1
S1130070AA36B107D9F720E0AAE6B0E001C01D9284
S1130080AA36B207E1F70E9449000C9494000C943C
S11300900000CF93DF93CDB7DEB729970FB6F8945E
S11300A0DEBF0FBECDBF8FEF84BB89E0E0E6F0E09A
S11300B0DE01119601900D928A95E1F79E01265F6B
S11300C03F4FFE0131968191AC9885BB4FE956E8CC
S11300D091E0415050409040E1F700C00000AC9ADC
S11300E04FE956E891E0415050409040E1F700C09C
S11300F00000AC9882958F7085BB4FE956E881E08B
S1130100415050408040E1F700C00000AC9A9FE9A4
S113011046E851E0915040405040E1F700C00000F3
S10F0120E217F30781F6CDCFF894FFCF6F
S10D012C4D61646861767369720026
S9030000FC
