:100000000C942A000C9434000C9434000C943400AA
:100010000C9434000C9434000C9434000C94340090
:100020000C9434000C9434000C9434000C94340080
:100030000C9434000C9434000C9434000C94340070
:100040000C9434000C9434000C9434000C94340060
:100050000C94340011241FBECFE5D8E0DEBFCDBF25
:100060000E9436000C9458000C9400008FEF84BB63
:1000700017BA82E088BB81E085BB91E0B19904C0EA
:1000800085B3880F880F0CC085B3813011F485B318
:1000900007C085B3811102C095BB03C085B38695A7
:1000A00085BBE3E2F4EF3197F1F700C00000E6CF43
:0400B000F894FFCFF2
:00000001FF
