:100000000C942A000C943C000C943C000C943C0092
:100010000C943C000C943C000C943C000C943C0070
:100020000C943C000C943C000C943C000C943C0060
:100030000C943C000C943C000C943C000C943C0050
:100040000C943C000C943C000C943C000C943C0040
:100050000C943C0011241FBECFE5D8E0DEBFCDBF1D
:1000600020E0A0E6B0E001C01D92A038B207E1F7A1
:100070000E947D000C940F010C9400005F9BFECF4A
:100080008CB1089510926000E0E05D9BFECFF0E03F
:10009000EF58FF4F80818CB9E0916000AE2FB0E047
:1000A000AF58BF4F8C918E3429F45D9BFECF8AE010
:1000B0008CB905C0EF5FE0936000EF3030F3109231
:1000C0006000E0E05D9BFECFF0E0EE59FF4F8081E5
:1000D0008CB9E0916000AE2FB0E0AE59BF4F8C916B
:1000E000853429F45D9BFECF8AE08CB90895EF5FDB
:1000F000E0936000EF3030F308958CE089B910BCD4
:100100008AB188618AB980B5866880BD1092600026
:100110000E943E00809361008432C1F70E943E003D
:1001200080936100873491F70E943E0080936100C4
:10013000803561F70E943E0080936100873431F77B
:100140000E943E0080936100873401F70E943E00C8
:10015000809361008134D1F60E943E00809361005B
:100160008C32A1F60E943E00809361008C3231F007
:100170000E943E00809361008C32D1F78091600034
:100180008F30C8F40E943E00809361008C3271F081
:1001900090916000E92FF0E0EF58FF4F808381E0FD
:1001A000890F809360008F3068F305C080916000F4
:1001B0008F5F80936000C0916000D0E00E943E009D
:1001C000CF58DF4F8883109260000E943E008091DC
:1001D00060008F30C8F40E943E00809361008C3232
:1001E00071F090916000E92FF0E0EE59FF4F8083AD
:1001F00081E0890F809360008F3068F305C08091A3
:1002000060008F5F80936000C0916000D0E00E942A
:100210003E00CE59DF4F88830E94420077CFF8948A
:02022000FFCF0E
:00000001FF
